:100000000C9469010C9479100C9452100C94910189
:100010000C9491010C9491010C9427120C94910171
:100020000C9491010C9491010C9491010C94910108
:100030000C9491010C9491010C9491010C949101F8
:100040000C94A4120C9491010C94C6100C94A01062
:100050000C9491010C9491010C9491010C949101D8
:100060000C94F8100C949101000102040810204037
:10007000801B36637C777BF26B6FC53001672BFE8C
:10008000D7AB76CA82C97DFA5947F0ADD4A2AF9CEE
:10009000A472C0B7FD9326363FF7CC34A5E5F171C5
:1000A000D8311504C723C31896059A071280E2EBCE
:1000B00027B27509832C1A1B6E5AA0523BD6B3295E
:1000C000E32F8453D100ED20FCB15B6ACBBE394AEB
:1000D0004C58CFD0EFAAFB434D338545F9027F50F2
:1000E0003C9FA851A3408F929D38F5BCB6DA2110F1
:1000F000FFF3D2CD0C13EC5F974417C4A77E3D6489
:100100005D197360814FDC222A908846EEB814DEB8
:100110005E0BDBE0323A0A4906245CC2D3AC629142
:1001200095E479E7C8376D8DD54EA96C56F4EA652C
:100130007AAE08BA78252E1CA6B4C6E8DD741F4B2B
:10014000BD8B8A703EB5664803F60E613557B98699
:10015000C11D9EE1F8981169D98E949B1E87E9CE46
:100160005528DF8CA1890DBFE6426841992D0FB05B
:1001700054BB1652096AD53036A538BF40A39E81BC
:10018000F3D7FB7CE339829B2FFF87348E4344C433
:10019000DEE9CB547B9432A6C2233DEE4C950B4254
:1001A000FAC34E082EA16628D924B2765BA2496D07
:1001B0008BD12572F8F66486689816D4A45CCC5D61
:1001C00065B6926C704850FDEDB9DA5E154657A7DA
:1001D0008D9D8490D8AB008CBCD30AF7E45805B849
:1001E000B34506D02C1E8FCA3F0F02C1AFBD03011D
:1001F000138A6B3A9111414F67DCEA97F2CFCEF048
:10020000B4E67396AC7422E7AD3585E2F937E81CA5
:1002100075DF6E47F11A711D29C5896FB7620EAA85
:1002200018BE1BFC563E4BC6D279209ADBC0FE7826
:10023000CD5AF41FDDA8338807C731B112105927F2
:1002400080EC5F60517FA919B54A0D2DE57A9F9327
:10025000C99CEFA0E03B4DAE2AF5B0C8EBBB3C8398
:10026000539961172B047EBA77D626E1691463553A
:10027000210C7D00000000240027002A000000005F
:1002800000250028002B0000000000230026002984
:10029000000404040404040404020202020202032F
:1002A0000303030303010204081020408001020439
:1002B00008102001020408102000000008000201BC
:1002C0000000030407000000000000000000641AA2
:1002D000361A11241FBECFEFD8E0DEBFCDBF26E017
:1002E000A0EEB2E001C01D92A63EB207E1F712E017
:1002F000A0E0B1E0E8EEFDE302C005900D92A03E63
:10030000B107D9F711E0C8E6D1E004C02197FE019A
:100310000E94D51CC736D107C9F70E94EE120C9473
:10032000E71E0C94000080E190E008958091820423
:100330000895E6E5F3E0DB01329780818D9383E059
:10034000E633F807C9F7109282040895E6E3F3E074
:100350001192119283E0EA36F807D1F708950F93CE
:100360001F93CF93DF934031510509F053C0EC0147
:10037000259680E1FB01DE0101900D928A95E1F75F
:1003800068E271E0F4E09D858E853F850C851881DB
:10039000B981AA815B81F43051F5E92FF0E0ED5885
:1003A000FF4F4491E72FF0E0E859FF4F2491E82FE9
:1003B000F0E0ED58FF4F9491E32FF0E0ED58FF4F40
:1003C0008491E02FF0E0ED58FF4F3491E42FE227C5
:1003D000212F2E27288BEB2FE927E98BEA2FE827FF
:1003E000EA8BE52FE327EB8B7F5FF0E00CC0E02F7B
:1003F000E127E88BE92FEB27E98BE82FEA27EA8B47
:10040000E32FE527EB8B2496FF5F615009F0BBCF0C
:1004100081E001C080E0DF91CF911F910F9108959D
:10042000809188039091890301969093890380932A
:100430008803609182037091830380918803909177
:1004400089039B0143E0220F331F4A95E1F72817E8
:10045000390728F410928903109288030895809137
:10046000DB059091DC050E947B0BE0918203F0910B
:10047000830331978091DB059091DC05E80FF91F2C
:100480008081816080830E94670C609384037093F5
:100490008503809386039093870308958091880352
:1004A00090918903019690938903809388036091CA
:1004B0008203709183038091DB059091DC050E949B
:1004C0007B0B0E94670C6093840370938503809379
:1004D0008603909387030895CF93DF93EC0168EC34
:1004E00070E080E090E00E942D0C61E08C810E9421
:1004F000C20B64E670E080E090E00E942D0C60E0AA
:100500008C81DF91CF910C94C20BCF93DF93EC01E0
:1005100061E08A810E94C20B60E08E81DF91CF9101
:100520000C94C20BCF93DF93EC0160E08A810E94B0
:10053000C20B61E08E81DF91CF910C94C20BCF93FF
:10054000DF93EC0161E08C810E94F10B61E08A8114
:100550000E94F10B61E08E810E94F10B61E085E069
:100560000E94C20B60E08C810E94C20B60E08A8115
:10057000DF91CF910C94C20BCF93DF93EC0161E03C
:100580008E810E94F10B61E088850E94F10B61E091
:100590008E810E94C20B61E088850E94C20B80910F
:1005A000DB059091DC05009711F00E94731D8FE030
:1005B00090E09093E0058093DF0580E390E09093D6
:1005C000DE058093DD0586E090E0909383038093C1
:1005D00082030E94DB1C9093DC058093DB05892B52
:1005E000B1F00E94730C60E083E00E94F10B60E0C8
:1005F00082E00E94F10B6EE472E081E00E94A90AA1
:1006000060E172E080E0DF91CF910C94A90ADF9164
:10061000CF9108952F923F924F925F926F927F9267
:100620008F929F92AF92BF92CF92DF92EF92FF9202
:100630000F931F93CF93DF9300D000D0CDB7DEB7D9
:100640008C01FB015081918182814381252F30E013
:100650003C832B83220F331F7BE1272E239E302CDC
:1006600011243226A92FB0E09D01220F331F239EB3
:10067000B02C1124B226482E512C9201220F331F88
:10068000239E902C11249226642F70E09B01220F50
:10069000331F239E202C11242226EB81FC81EE0F98
:1006A000FF1FEE0FFF1FFA83E9836D01CC0CDD1CE9
:1006B000CC0CDD1CED2CFF2497012E5A3E4FF90186
:1006C00080808C246201CC0CDD1CCC0CDD1CED2C5C
:1006D000FF2497012E5A3E4FF901A080AC246B01F4
:1006E000CC0CDD1CCC0CDD1CED2CFF2497012E5A0C
:1006F0003E4FF901D080DC24EB80FC80F3E0EE0C6F
:10070000FF1CFA95E1F72F2D33272E5A3E4FF901A2
:10071000F081FE25FB833D0133E0660C771C3A95A2
:10072000E1F7A72DBB27AE5ABE4FAC91A625F3E04B
:10073000440C551CFA95E1F7E52DFF27EE5AFE4FC4
:10074000E0814E2623E0660F771F2A95E1F7E72F19
:10075000FF27EE5AFE4FE0816E2729813A81E32F71
:10076000FF27EE5AFE4F3081298123273B81232723
:10077000392F382734273A253A2734253627332589
:100780003B253227F8013083352F38273427382589
:100790003D25FB813F273A2734253627B326B92448
:1007A000F801B18295274927A426AA26A424A626C3
:1007B0009A2492242925228398279825C92ECD246E
:1007C000FB81FC25AF274A2664256325262F222599
:1007D000F80123830F900F900F900F90DF91CF912E
:1007E0001F910F91FF90EF90DF90CF90BF90AF904F
:1007F0009F908F907F906F905F904F903F902F9041
:1008000008951F93CF93DF93FC01CB01DB011C9173
:1008100011967C9111971296BC91EC01AB81812FBE
:1008200090E0880F991FCBE1C99F602D11246827A4
:10083000472F50E0440F551FC59F802D1124482796
:100840002B2F30E0220F331FC39F802D1124282728
:100850008A2F90E0880F991FC99FC02D11248C27E3
:10086000972F9B279A27962794279083912F9B2732
:100870009A274927422741837127A7272A27282714
:1008800022837B27762787278383DF91CF911F9150
:100890000895CF93DF93DC01EB01E881F0E0ED58A0
:1008A000FE4FE491EC93ED85F0E0ED58FE4FE491BE
:1008B0001196EC931197EA85F0E0ED58FE4FE49124
:1008C0001296EC931297EF81F0E0ED58FE4FE49111
:1008D0001396EC931397EC81F0E0ED58FE4FE49102
:1008E0001496EC931497E981F0E0ED58FE4FE491F3
:1008F0001596EC931597EE85F0E0ED58FE4FE491D8
:100900001696EC931697EB85F0E0ED58FE4FE491C8
:100910001796EC931797E885F0E0ED58FE4FE491B9
:100920001896EC931897ED81F0E0ED58FE4FE491A6
:100930001996EC931997EA81F0E0ED58FE4FE49197
:100940001A96EC931A97EF85F0E0ED58FE4FE4917C
:100950001B96EC931B97EC85F0E0ED58FE4FE4916D
:100960001C96EC931C97E985F0E0ED58FE4FE4915E
:100970001D96EC931D97EE81F0E0ED58FE4FE4914B
:100980001E96EC931E97EB81F0E0ED58FE4FE4913C
:100990001F96EC93DF91CF910895CF93DF93DC0105
:1009A000EB01E881F0E0ED58FF4FE491EC93ED812D
:1009B000F0E0ED58FF4FE4911196EC931197EA8522
:1009C000F0E0ED58FF4FE4911296EC931297EF850B
:1009D000F0E0ED58FF4FE4911396EC931397EC8100
:1009E000F0E0ED58FF4FE4911496EC931497E985ED
:1009F000F0E0ED58FF4FE4911596EC931597EE85D6
:100A0000F0E0ED58FF4FE4911696EC931697EB81CA
:100A1000F0E0ED58FF4FE4911796EC931797E885B7
:100A2000F0E0ED58FF4FE4911896EC931897ED85A0
:100A3000F0E0ED58FF4FE4911996EC931997EA8195
:100A4000F0E0ED58FF4FE4911A96EC931A97EF817E
:100A5000F0E0ED58FF4FE4911B96EC931B97EC856B
:100A6000F0E0ED58FF4FE4911C96EC931C97E98160
:100A7000F0E0ED58FF4FE4911D96EC931D97EE8149
:100A8000F0E0ED58FF4FE4911E96EC931E97EB8536
:100A9000F0E0ED58FF4FE4911F96EC93DF91CF917A
:100AA0000895FC0135968B549F4F10823196E817BC
:100AB000F907D9F70895CF93DF93EC010E94510510
:100AC000CE01DF91CF910C94731D0F931F93CF93A1
:100AD000DF938A01EB0184E0CC0FDD1F8A95E1F7FB
:100AE00081E08093B50384E58093D7031092B60329
:100AF0001092D8038D2F90E00E94CC09CE01992747
:100B00000E94CC09E801005F1F4F699186E794E0DD
:100B10000E94260EC017D107C1F781E00E9470091C
:100B20006BE070E080E090E0DF91CF911F910F913A
:100B30000C942D0CEF92FF920F931F93CF93DF93A2
:100B4000CDB7DEB764970FB6F894DEBF0FBECDBF4A
:100B50007C0180E1E2E4F1E0DE01119601900D926A
:100B60008A95E1F700E010E04AE0BE016F5E7F4F3A
:100B7000C8010E94CF1B89898A838A898B838B89CC
:100B80008C838C898D83AE014F5F5F4FB801C701A5
:100B90000E946505A8950F5F1F4F013283E018077B
:100BA00019F764960FB6F894DEBF0FBECDBFDF9184
:100BB000CF911F910F91FF90EF900895EF92FF92C8
:100BC0000F931F93CF93DF938A01EB0184E0CC0F47
:100BD000DD1F8A95E1F781E08093B50384E580937A
:100BE000D7031092B6031092D8038D2F90E00E9485
:100BF000CC09CE0199270E94CC0981E00E9470099E
:100C00008091B4038111FCCF81E08093B403809381
:100C1000B3039FEF9093B2031092B1039FE09093C0
:100C2000B00380938F0380918F03886A80938F0332
:100C300080918E03813061F410928E0380918F0336
:100C40008093BB008091BC0083FDF8CF85EC01C090
:100C500085EE8093BC008091B4038130E1F38091F4
:100C6000B103803118F49091B10301C090E1E0E943
:100C7000F3E0A9E7B6E080E0891721F021912D93F8
:100C80008F5FFACF1092E5028093E40280E020911A
:100C9000E4029091E502291769F0C1E0C80F7801DC
:100CA000E80EF11C86E794E00E94DD0DF7018083D9
:100CB0008C2FEDCFDF91CF911F910F91FF90EF908F
:100CC00008950F931F93CF93DF93DC015D962C91D2
:100CD000222329F1EC010E94670C0C851D852E85CD
:100CE0003F85DC01CB01801B910BA20BB30B843F32
:100CF0009140A105B10598F00E94670C6C877D8733
:100D00008E879F878E819F81DC01ED91FC9106800B
:100D1000F781E02DDF91CF911F910F910994DF9121
:100D2000CF911F910F9108958F929F92AF92BF9292
:100D3000EF92FF920F931F93CF93DF93CDB7DEB760
:100D400060970FB6F894DEBF0FBECDBFDC015C9696
:100D50002C915C97211162C07B018C01FC01858D77
:100D6000882321F0CD010E94610658C00E94670CC3
:100D7000D80150968D909D90AD90BC905397DC011A
:100D8000CB01880D991DAA1DBB1DF801848B958B85
:100D9000A68BB78B848D811113C081E0858F8AEF7C
:100DA0009FEFAFEFBFEF808F918FA28FB38F8681C0
:100DB0009781DC01ED91FC910190F081E02D099586
:100DC000C8010E946106BE01655F7F4F86E0FB019E
:100DD00011928A95E9F74AE0C7010E94CF1B84E48B
:100DE00089838AE38A8395E59B838C838B858D83B6
:100DF0008C858E838D858F838E8588878F85898767
:100E000088898A874AE050E0BE016F5F7F4FD80132
:100E100018968D919C9119970E94E50960960FB6DE
:100E2000F894DEBF0FBECDBFDF91CF911F910F9120
:100E3000FF90EF90BF90AF909F908F900895CF92CA
:100E4000DF92EF92FF920F931F93CF93DF93CDB773
:100E5000DEB72D970FB6F894DEBF0FBECDBF8C0165
:100E6000FC0186810E94990B892B39F46FEF7FE793
:100E7000F801848195810E949406F80180850E9482
:100E8000990B892B29F4F801848195810E946106D0
:100E9000F894C0908403D0908503E0908603F0908E
:100EA000870378940E94670CAB01BC014C195D0963
:100EB0006E097F098091DF059091E005A0E0B0E028
:100EC00084179507A607B70780F48091880390914F
:100ED0008903892B61F40E94670C609384037093EB
:100EE0008503809386039093870380E076C0F8940F
:100EF000E091DB05F091DC0526E0CE010196DC01F6
:100F000001900D922A95E1F720918203309183039D
:100F10003C872B8720918803309189033A87298762
:100F200029853A8543E0369527954A95E1F7388734
:100F30002F8329853A8527703327232B31F02F8182
:100F400038852F5F3F4F38872F83EB85FC852F81B6
:100F50003885E21BF30B8F01080F191F4B855C8549
:100F60009801281B390B2417350730F5F80121911A
:100F70008F012D8726E333E044E053E0D9016D91E2
:100F80007D91FA0161937193AF01F3E0A836BF0739
:100F9000B1F7A2E0B3E04D915D91F9014193519316
:100FA0009F01F3E0A633BF07B1F72D8530E0309302
:100FB000370320933603D2CF89819A810E94731D13
:100FC0000E94730C789481E0809382046AE070E060
:100FD00080E090E00E942D0C81E02D960FB6F894F1
:100FE000DEBF0FBECDBFDF91CF911F910F91FF905C
:100FF000EF90DF90CF9008958F929F92AF92BF9223
:10100000CF92DF92EF92FF92CF93DF93EC010E9499
:10101000670CC090FE02D090FF02E0900003F090B9
:1010200001036C157D058E059F0530F40E94670C49
:10103000672B682B692BE9F50E94670C6093FE0211
:101040007093FF028093000390930103C880D980BE
:10105000EA80FB800E94670C4B015C012091FA0240
:101060003091FB024091FC025091FD0267E379E868
:1010700081E490E00E94A31CC60ED71EE81EF91E54
:10108000C501B40128EE33E040E050E00E94B31CFB
:10109000C701B601620F731F841F951FDF91CF91A7
:1010A000FF90EF90DF90CF90BF90AF909F908F9088
:1010B00008958091FA029091FB02A091FC02B091F8
:1010C000FD020196A11DB11D8093FA029093FB02CF
:1010D000A093FC02B093FD02AFCFEF92FF920F936B
:1010E0001F93CF93DF93CDB7DEB76C970FB6F8940D
:1010F000DEBF0FBECDBF6AEC72E0CE0147960E9404
:1011000017108E010F5F1F4FA80166E873E085E29C
:1011100095E00E94DE058981843491F48A81898B6F
:101120008B818A8B8C818B8B8D818C8B8E818D8B2F
:101130008F818E8BCE0141960E948A1B7C0104C058
:1011400088EEE82E8DEFF82E1A8A198A1C8A1B8ADF
:101150001E8A1D8ABE01695E7F4FCE0141960E94A4
:10116000ED0F4AE0B801C7010E94281CF801019068
:101170000020E9F73197AF01401B510BB801CE01B8
:1011800041960E94AD0F811104C0CE0141960E948C
:10119000DB0FBE016F5E7F4FCE0147960E94ED0FC1
:1011A00089899A890E94731D1A8219821C821B8266
:1011B0001E821D82BE01695E7F4FC8010E94ED0F35
:1011C00042E050E066E272E0C8010E94AD0F882361
:1011D00011F1B801CE0147960E94ED0F89819A81E5
:1011E0000E94731D4B8D5C8D6F89788D89ED93E026
:1011F0000E948E0C8F89988D0E94731D6C960FB67D
:10120000F894DEBF0FBECDBFDF91CF911F910F913C
:10121000FF90EF900895C8010E94DB0FDACF833072
:1012200081F028F4813099F08230A1F00895873060
:10123000A9F08830B9F08430D1F4809180008F7D9E
:1012400003C0809180008F7780938000089584B5DB
:101250008F7702C084B58F7D84BD08958091B000E2
:101260008F7703C08091B0008F7D8093B000089588
:101270003FB7F89480916E0390916F03A091700333
:10128000B091710326B5A89B05C02F3F19F00196B8
:10129000A11DB11D3FBFBA2FA92F982F8827820FFC
:1012A000911DA11DB11DBC01CD0142E0660F771F4C
:1012B000881F991F4A95D1F708958BE1EEEFF4E06E
:1012C000DF011D928A95E9F789ED93E00E94E90C10
:1012D000892B29F089ED93E00E94C70CF5CF089582
:1012E000282F3091D803313208F04AC08091B403DE
:1012F0008111FCCF9091D70342E04093B403209337
:10130000B3032FEF2093B2031092B1033093B003D5
:10131000E7EBF3E0A0E9B3E020E0321721F04191E0
:101320004D932F5FFACF10928F0320918F03990F67
:10133000922B90938F0390918E03913061F41092D1
:101340008E0390918F039093BB009091BC0093FD0E
:10135000F8CF95EC01C095EE9093BC009091B4034A
:101360009230E1F39091B2039F3F79F08091B20304
:10137000803241F08091B203803331F084E005C0C7
:1013800081E003C082E001C083E01092B6031092B6
:10139000D8031092B5030895682F86E794E00C9463
:1013A000260E009769F0FC0101900020E9F73197C3
:1013B000AF01481B590BBC0189ED93E00C948E0CD6
:1013C00080E090E008950C94D1098F929F92AF92A3
:1013D000BF92CF92DF92EF92FF920F931F93CF9322
:1013E000DF93CDB7DEB7E0970FB6F894DEBF0FBE40
:1013F000CDBF21E0FC01208300918A0310918B0373
:1014000020918C0330918D03013814482E41310511
:1014100040F010928A0310928B0310928C0310926A
:101420008D03C0908A03D0908B03E0908C03F090E2
:101430008D032FEFC21AD20AE20AF20AC0928A037F
:10144000D0928B03E0928C03F0928D0341315105D1
:101450000CF06CC020E1EAE6F1E0DE01919601902B
:101460000D922A95E1F720E1EAE6F1E0DE015196DE
:1014700001900D922A95E1F722E029A3FB014E018C
:1014800021E1820E911CD4019D01281939092417EC
:1014900035071CF421912D93F7CF8C01FC01868137
:1014A00097810E94FC076AA37BA38CA39DA3CEA275
:1014B000DFA2E8A6F9A6F801A284B384B501605EB4
:1014C0007C4FAE014F5D5F4F808591850E94650521
:1014D000B5016F5D7C4FA401F801808591850E9464
:1014E0006505F801828593850296853691051CF481
:1014F0009387828703C0F80113861286CE01019676
:101500005C0180E1F50111928A95E9F72AE0A501D5
:10151000C701B6010E94DA1B8AEA888BA50165E83B
:1015200073E0F801808591850E946505E0960FB60D
:10153000F894DEBF0FBECDBFDF91CF911F910F9109
:10154000FF90EF90DF90CF90BF90AF909F908F90E3
:1015500008958230C8F4E82FF0E0EE0FFF1FE05F3F
:10156000FE4F71836083813041F0809169008C7FF0
:10157000826080936900E89A089580916900837F72
:10158000886080936900E99A0895CF93DF93CDB77F
:10159000DEB760970FB6F894DEBF0FBECDBFAE01C9
:1015A0004F5F5F4F6AE873E08091C5049091C60475
:1015B0000E94DE058981843451F448EC54E069E8E6
:1015C00073E08091C5049091C6040E94DE0540E15D
:1015D00050E068EC74E086E295E00E94AF0160960E
:1015E0000FB6F894DEBF0FBECDBFDF91CF91089547
:1015F0008F929F92AF92BF920F931F93CF93DF93DF
:10160000CDB7DEB7A1970FB6F894DEBF0FBECDBF42
:1016100019A2423008F44AE08E010F5D1F4F842E5C
:10162000912CA12CB12CA50194010E94B31CE62F92
:10163000B901CA0101501109EA3014F4E05D01C09A
:10164000E95CD801EC93232B242B252B61F7C801EF
:101650000E94D109A1960FB6F894DEBF0FBECDBF90
:10166000DF91CF911F910F91BF90AF909F908F907E
:101670000895CF93DF93C3E9D4E08AEF9FEFAFEFF4
:10168000BFEF8C8B9D8BAE8BBF8B8E819F81DC01DE
:10169000ED91FC910280F381E02D099548E050E046
:1016A00066ED72E0888599850E94E5091D8EDF91BF
:1016B000CF910895FC0120E030E041914F3F21F4AB
:1016C00024303105B4F005C02F5F3F4F2031310584
:1016D000A1F7E2E8F3E0E21BF30BDC013D91CD0161
:1016E0002191321306C0B3E0E238FB07B1F781E085
:1016F000089580E00895AB0141505109FC0120E0BC
:1017000030E026173707A4F4DF011196421753077C
:1017100019F48081880F07C081819081990F881FFB
:101720008827881F892B80832F5F3F4FFD01E9CFDA
:101730000895CF93DF93282F30E0F901E754FD4F50
:101740008491F901EB55FD4FD491F901EF56FD4F0E
:10175000C491CC2391F081110E940F09EC2FF0E08D
:10176000EE0FFF1FE957FD4FA591B491EC91ED23CA
:1017700081E090E021F480E002C080E090E0DF9121
:10178000CF9108951F93CF93DF93282F30E0F90175
:10179000E754FD4F8491F901EB55FD4FD491F901C8
:1017A000EF56FD4FC491CC23C1F0162F81110E943A
:1017B0000F09EC2FF0E0EE0FFF1FE358FD4FA5914E
:1017C000B4919FB7F894111104C08C91D095D8238F
:1017D00002C0EC91DE2BDC939FBFDF91CF911F9174
:1017E0000895CF93DF9390E0FC01EB55FD4F2491DA
:1017F000FC01EF56FD4F8491882361F190E0880F42
:10180000991FFC01ED58FD4FC591D491FC01E3589F
:10181000FD4FA591B491611109C09FB7F8948881DB
:10182000209582238883EC912E230BC0623061F4D3
:101830009FB7F8948881322F309583238883EC9169
:101840002E2B2C939FBF06C08FB7F894E8812E2BC8
:1018500028838FBFDF91CF9108958F929F92AF928F
:10186000BF92CF92DF92EF92FF926B017C010E94B8
:1018700038094B015C01C114D104E104F104F1F019
:101880000E943809DC01CB0188199909AA09BB0912
:10189000883E9340A105B10570F321E0C21AD1083A
:1018A000E108F10888EE880E83E0981EA11CB11CA7
:1018B000C114D104E104F10419F7DDCFFF90EF90DA
:1018C000DF90CF90BF90AF909F908F9008952FB7EB
:1018D000F89460916A0370916B0380916C0390910E
:1018E0006D032FBF089510928903109288030E9400
:1018F000670C6093840370938503809386039093B1
:101900008703409182035091830360E070E08091EF
:10191000DB059091DC050C94D01E0895CF92DF92E8
:10192000EF92FF920F931F93CF93DF936C017A0195
:101930008B01C0E0D0E0CE15DF0581F0D8016D91BC
:101940008D01D601ED91FC910190F081E02DC60151
:101950000995892B11F02196EECF7E01C701DF9109
:10196000CF911F910F91FF90EF90DF90CF9008954E
:10197000FC01538D448D252F30E0842F90E0821B95
:10198000930B541710F0CF96089501970895FC011A
:10199000918D828D981761F0828DDF01A80FB11DA6
:1019A0005D968C91928D9F5F9F73928F90E00895CA
:1019B0008FEF9FEF0895FC01918D828D981731F084
:1019C000828DE80FF11D858D90E008958FEF9FEFD8
:1019D0000895FC01918D228D892F90E0805C9F4FAE
:1019E000821B91098F739927089589ED93E00E94D6
:1019F000E90C21E0892B09F420E0822F0895FC01F5
:101A0000848DDF01A80FB11DA35ABF4F2C91848D87
:101A100090E001968F739927848FA689B7892C93BC
:101A2000A089B1898C91837080648C93938D848D0F
:101A3000981306C00288F389E02D80818F7D808312
:101A40000895EF92FF920F931F93CF93DF93EC01D2
:101A500081E0888F9B8D8C8D981305C0E889F9896A
:101A6000808185FD26C0F62E0B8D10E00F5F1F4F85
:101A70000F731127E02E8C8DE8120CC00FB607FCF7
:101A8000FACFE889F989808185FFF5CFCE010E94E0
:101A9000FF0CF1CF8B8DFE01E80FF11DE35AFF4FD4
:101AA000F0829FB7F8940B8FEA89FB89808180626E
:101AB0000AC09FB7F894EE89FF896083E889F989A5
:101AC00080818370806480839FBF81E090E0DF919C
:101AD000CF911F910F91FF90EF900895CF93DF93D7
:101AE000EC01888D8823C9F0EA89FB89808185FD16
:101AF00005C0A889B9898C9186FD0FC00FB607FC77
:101B0000F5CF808185FFF2CFA889B9898C9185FFB7
:101B1000EDCFCE010E94FF0CE7CFDF91CF9108956A
:101B200080E090E0892B29F00E94F50C81110C9443
:101B30000000089585ED8093BC008091BC0084FD79
:101B4000FCCF1092B40308954091BE06262F30E0DA
:101B5000240F311D21323105DCF42091B4032430EF
:101B6000C9F4FC0180E090E0861758F43091BE067D
:101B70002191DC01A256B94FA30FB11D2C93019600
:101B8000F3CF8091BE06680F6093BE0680E0089593
:101B900081E0089582E0089508950895E091E502B6
:101BA0008091E402E81730F4F0E0E758F94F8081C3
:101BB00090E008958FEF9FEF08959091E502809156
:101BC000E402981750F4E92FF0E0E758F94F20812C
:101BD00030E09F5F9093E50202C02FEF3FEFC90115
:101BE00008958091E40290E02091E502821B910922
:101BF0000895CF92DF92EF92FF920F931F93CF93AE
:101C0000DF937C01CB018A012091B503222389F067
:101C1000EB016B01C40ED51ECC15DD0569F0699191
:101C2000D701ED91FC910190F081E02DC70109955C
:101C3000F3CF642F0E94A40DC801DF91CF911F91B3
:101C40000F91FF90EF90DF90CF900895CF93DF93A7
:101C50001F92CDB7DEB769832091B5032223D1F05F
:101C60002091D803203240F021E030E0FC013383A2
:101C7000228380E090E015C08091B603E82FF0E069
:101C8000E954FC4F998190838F5F8093B6038093D2
:101C9000D80305C061E0CE0101960E94A40D81E049
:101CA00090E00F90DF91CF910895089580E090E04B
:101CB0000895DC011396ED91FC91149712968C9186
:101CC0009F0140E1849F200D311D1124C9014096E0
:101CD000108231968E179F07D9F708950E94C21E71
:101CE0000F931F93CF93DF93EC0188819981009725
:101CF00029F02A813B812617370788F48B016F5F13
:101D00007F4F0E94FC1D009761F0998388831B839D
:101D10000A832C813D81232B11F4FC01108281E088
:101D200001C080E0DF91CF911F910F910895AF9294
:101D3000BF92CF92DF92EF92FF920F931F93CF93B8
:101D4000DF93CDB7DEB7A0970FB6F894DEBF0FBE16
:101D5000CDBF6C017B01DC0112968C91129713961A
:101D60000D911C911497B0E18B9F000D111D112452
:101D7000FA019801BE016F5F7F4F405F5F4F5B01CB
:101D80009191D9018D919D018927DB018D93BD0131
:101D9000E417F507A9F7B501CE0141960E94490461
:101DA000F601D280D8015097F1E0FD1580F58D0144
:101DB000FD01DE0151969801205F3F4F81919C917A
:101DC00089278D932E173F07C9F7BE016F5E7F4F9E
:101DD000C5010E940A03BE016B5E7F4FCE010596CE
:101DE0000E940A03BE01675E7F4FCE0109960E94E2
:101DF0000A03BE01635E7F4FCE010D960E940A0367
:101E0000B501CE0141960E944904DA94CBCFAE01D0
:101E10004F5E5F4FC701FA013191AF012D9123272A
:101E2000FC012193CF010A171B07A9F7A0960FB653
:101E3000F894DEBF0FBECDBFDF91CF911F910F9100
:101E4000FF90EF90DF90CF90BF90AF900895BF923A
:101E5000CF92DF92EF92FF920F931F93CF93DF9376
:101E6000CDB7DEB7A0970FB6F894DEBF0FBECDBFDB
:101E70007C016B01DC0113960D911C911497FA0102
:101E8000A801BF01605F7F4F9E012F5F3F4F81918F
:101E9000DA019D91AD019827D9019D939D01E61727
:101EA000F707A9F7005F1F4FF701B280CE014196F7
:101EB0007C0191E0BE016F5F7F4F9B1558F5C70114
:101EC0000E94CD04B701CE0101960E940104BE011B
:101ED0006B5E7F4FCE0105960E940104BE01675ED6
:101EE0007F4FCE0109960E940104BE01635E7F4FC1
:101EF000CE010D960E940104D801FE0131968D910C
:101F0000908189278193EE16FF06C9F7005F1F4F66
:101F1000BA94CFCFC7010E94CD04F701C601AE012C
:101F20004F5D5F4F3191D8012D918D012327DC0149
:101F30002D93CD014E175F07A9F7A0960FB6F89421
:101F4000DEBF0FBECDBFDF91CF911F910F91FF90EC
:101F5000EF90DF90CF90BF900895EF92FF920F9394
:101F60001F93CF93DF936115710511F480E01CC0BE
:101F700041155105C1F07B01EC018C819D818A01E5
:101F8000080F191FB801CE010E94700E882371F34B
:101F9000288139818C819D81B701820F931F0E9416
:101FA000E01E1D830C8381E0DF91CF911F910F9183
:101FB000FF90EF900895CF93DF93EC018881998192
:101FC000009711F00E94731D198218821D821C82D5
:101FD0001B821A82DF91CF910895EF92FF920F93A7
:101FE0001F93CF93DF93EC0186179707C1F0FB0196
:101FF000008111810115110539F0E480F580B701E8
:102000000E94700E811104C0CE010E94DB0F07C038
:10201000FD82EC82B801888199810E94E01ECE0188
:10202000DF91CF911F910F91FF90EF900895EF9264
:10203000FF920F931F93CF93DF93EC0119821882C5
:102040001B821A821D821C826115710521F18B0190
:10205000FB0101900020E9F731977F01E61AF70AAA
:10206000B7010E94700E811109C0CE01DF91CF919E
:102070001F910F91FF90EF900C94DB0FFD82EC828B
:10208000B80188819981DF91CF911F910F91FF90C5
:10209000EF900C94E01EDF91CF911F910F91FF9074
:1020A000EF9008951F920F920FB60F9211242F9365
:1020B0003F934F935F936F937F938F939F93AF93D0
:1020C000BF93EF93FF93E0911201F09113010995F3
:1020D000FF91EF91BF91AF919F918F917F916F9100
:1020E0005F914F913F912F910F900FBE0F901F90D6
:1020F00018951F920F920FB60F9211242F933F93B2
:102100004F935F936F937F938F939F93AF93BF93FF
:10211000EF93FF93E0911001F09111010995FF9168
:10212000EF91BF91AF919F918F917F916F915F914F
:102130004F913F912F910F900FBE0F901F901895C8
:102140001F920F920FB60F9211242F933F934F932C
:102150005F936F937F938F939F93AF93BF93EF930F
:10216000FF9389ED93E00E94FF0CFF91EF91BF91E7
:10217000AF919F918F917F916F915F914F913F911F
:102180002F910F900FBE0F901F9018951F920F92D6
:102190000FB60F9211242F938F939F93EF93FF937A
:1021A000E091E903F091EA038081E091EF03F0917F
:1021B000F00382FD12C090818091F2038F5F8F73D4
:1021C0002091F303821751F0E091F203F0E0E7521F
:1021D000FC4F958F8093F20301C08081FF91EF91B6
:1021E0009F918F912F910F900FBE0F901F90189578
:1021F0001F920F920FB60F9211242F933F934F937C
:102200005F936F937F938F939F93AF93BF93EF935E
:10221000FF938091B900887F803609F49CC068F5EF
:10222000883209F45BC090F4803109F454C038F46A
:10223000882309F4F6C0883009F44DC0F6C088310F
:1022400009F44CC0803209F45DC0EFC0803409F459
:1022500068C048F4803309F455C0883309F0E5C0FC
:102260008093B203D8C0803509F44FC0883509F493
:102270005DC0883409F0D9C0D6C0883909F4C7C018
:10228000A8F4883709F467C038F4883609F463C0C5
:10229000803709F460C0C9C0883809F4B8C08039F3
:1022A00009F45FC0803809F0C0C05BC0803B09F40E
:1022B00086C038F4803A09F466C0883A09F47FC0D1
:1022C000B4C0803C09F4A7C0883C09F4A4C0883B92
:1022D00009F48AC0AAC080918F0310C09091B10305
:1022E0008091B003981770F5E091B10381E08E0FF3
:1022F0008093B103F0E0E057FC4F80818093BB00F6
:1023000085EC86C08093B2038EC0E091B10381E07A
:102310008E0F8093B1038091BB00F0E0E057FC4F3B
:1023200080839091B1038091B0036EC0E091B103BE
:1023300081E08E0F8093B1038091BB00F0E0E05705
:10234000FC4F80838091B30381116DC081E0809345
:102350008E0384EA61C083E08093B4031092E006A8
:10236000CFCF8091E006803208F051C0E091E006C6
:1023700081E08E0F8093E0068091BB00F0E0E05496
:10238000F94F8083BDCF85EC8093BC001092B403DD
:102390008091E006803230F4E091E006F0E0E05415
:1023A000F94F10826091E00670E0E091E002F09158
:1023B000E10280EC96E009951092E00636C084E0D8
:1023C0008093B4031092BF061092BE06E091E20221
:1023D000F091E30209958091BE06811105C081E06C
:1023E0008093BE0610929E06E091BF0681E08E0F9C
:1023F0008093BF06F0E0E256F94F80818093BB00E6
:102400009091BF068091BE06981708F479CF85E8B1
:102410008093BC000AC085EC8093BC001092B4038A
:1024200004C01092B2030E949A0DFF91EF91BF91E8
:10243000AF919F918F917F916F915F914F913F915C
:102440002F910F900FBE0F901F90189508951F9217
:102450000F920FB60F9211242F934F935F936F93A8
:102460007F938F939F93AF93BF932091840080912C
:102470009A0690919B06A0919C06B0919D06820FB2
:10248000911DA11DB11D80939A0690939B06A09368
:102490009C06B0939D0680919A0690919B06A09110
:1024A0009C06B0919D0640919A0650919B066091C2
:1024B0009C0670919D062AE0880F991FAA1FBB1FDA
:1024C0002A95D1F7840F951FA61FB71F80939A06F0
:1024D00090939B06A0939C06B0939D0680919A06CC
:1024E00090919B06A0919C06B0919D0640919A0602
:1024F00050919B0660919C0670919D0626E0B695D2
:10250000A795979587952A95D1F784279527A6278C
:10251000B72780939A0690939B06A0939C06B0934E
:102520009D06809199068F5F80939906BF91AF9128
:102530009F918F917F916F915F914F912F910F900C
:102540000FBE0F901F9018951F920F920FB60F920B
:1025500011242F933F938F939F93AF93BF938091B9
:102560006A0390916B03A0916C03B0916D0330915D
:10257000E10623E0230F2D3720F40196A11DB11DA4
:1025800005C026E8230F0296A11DB11D2093E10688
:1025900080936A0390936B03A0936C03B0936D03D5
:1025A00080916E0390916F03A0917003B0917103BD
:1025B0000196A11DB11D80936E0390936F03A093AC
:1025C0007003B0937103BF91AF919F918F913F9131
:1025D0002F910F900FBE0F901F901895CF93DF9300
:1025E000CDB7DEB7C556D1090FB6F894DEBF0FBE22
:1025F000CDBF789484B5826084BD84B5816084BD8C
:1026000085B5826085BD85B5816085BD80916E0090
:10261000816080936E0010928100809181008260C1
:1026200080938100809181008160809381008091FE
:1026300080008160809380008091B10084608093ED
:10264000B1008091B00081608093B00080917A00E9
:10265000846080937A0080917A00826080937A000F
:1026600080917A00816080937A0080917A008068FE
:1026700080937A001092C10083E994E09093BE04A5
:102680008093BD0498E288E10FB6F894A8958093F2
:1026900060000FBE90936000E091E903F091EA03BF
:1026A00082E08083E091E503F091E6031082E091FF
:1026B000E703F091E80370E1F72EF0821092F10346
:1026C000E091ED03F091EE0386E08083E091EB036F
:1026D000F091EC03808180618083E091EB03F091C5
:1026E000EC03808188608083E091EB03F091EC0340
:1026F000808180688083E091EB03F091EC0380811E
:102700008F7D80831092E5021092E4021092B6034E
:102710001092D8031092B40381E08093B303109217
:102720008E0361E082E10E94C20B61E083E10E94BE
:10273000C20B8091B9008E7F8093B9008091B9005F
:102740008D7F8093B90088E48093B80085E48093FE
:10275000BC008CEC9DE09093E3028093E2028DEC50
:102760009DE09093E1028093E0028CE08093B800BA
:1027700061E085E00E94F10B64EF71E080E090E0A1
:102780000E942D0C60E085E00E94C20B64EF71E0B6
:1027900080E090E00E942D0C61E085E00E94C20B79
:1027A00064EF71E080E090E00E942D0C0E946D08C3
:1027B00064EF71E080E090E00E942D0C88EF91E0E2
:1027C0000E94E30964EF71E080E090E00E942D0C2C
:1027D00089E092E00E94E30964EF71E080E090E01C
:1027E0000E942D0C85E192E00E94E30964EF71E004
:1027F00080E090E00E942D0C89E292E00E94E309C3
:1028000064EF71E080E090E00E942D0CA8950E949A
:10281000C50A89EB94E00E94BC028E010F5F1F4F36
:10282000D8011D92FA94E9F7A80165E873E0809158
:102830002105909122050E94DE05C8010E94A81B77
:1028400060938A0370938B0380938C0390938D0322
:102850008091990490919A04DC01ED91FC9104809F
:10286000F581E02D0995A80167E873E08091930454
:10287000909194040E94DE058981843429F088E8CF
:1028800093E1A0E0B0E01FC08A8190E0A0E0B0E05A
:10289000BA2FA92F982F88272B81820F911DA11D58
:1028A000B11DBA2FA92F982F88272C81820F911D37
:1028B000A11DB11DBA2FA92F982F88272D81820F16
:1028C000911DA11DB11D8093A3049093A404A09316
:1028D000A504B093A60481EB94E00E949F02A89502
:1028E000E0908504F09086046AE371E0C7010E94DD
:1028F000D71E892B09F465C488E0E2ECF2E0D70129
:1029000001900D928A95E1F749E050E061E472E0B0
:1029100089E195E00E94E5093E01BBE26B0E711C66
:102920007E01EBE1EE0EF11C9E01265E3F4FA1966B
:102930003FAF2EAFA19761E070E080E090E00E9491
:102940002D0CA895DD24D39489ED93E00E94E90C29
:10295000892B09F03EC489EB94E00E941F07809107
:102960009D0490919E040E94FC078090AB0490907F
:10297000AC04A090AD04B090AE0486169706A806ED
:10298000B90630F460E070E083E994E00E949406B8
:102990000E94670C8090A7049090A804A090A904BE
:1029A000B090AA0486169706A806B90610F40E94ED
:1029B000390B80918204882309F4C9C062E773E06F
:1029C00089EB94E00E9499016091810370E080E0BE
:1029D00090E040E10E94F80A86E292E00E94E3095A
:1029E0008091B004882329F0809181038A3009F412
:1029F000EDC3CC24C394D12CA301B60180919304E0
:102A0000909194040E94DE05C3010E945A0BB82ED7
:102A1000882381F0A090B004A11006C0B60183E91C
:102A200094E00E9494068DC083E994E00E946106C0
:102A3000BA2C87C08091950490919604DC01ED91A9
:102A4000FC910084F185E02D0995811108C0BFEF4C
:102A5000CB1ADB0AE1E2CE16E3E0DE0669F680E09F
:102A600091E00E945A0B882309F471C0C09093042E
:102A7000D090940480E1EAE1F1E0D70101900D9259
:102A80008A95E1F7A70165E873E0C6010E94650534
:102A9000A70166E873E0C6010E946505A70167E823
:102AA00073E0C6010E946505A70168E873E0C601EE
:102AB0000E946505A70169E873E0C6010E946505EB
:102AC000A7016AE873E0C6010E946505A7016DE7EA
:102AD00075E1C6010E946505C6010E949A0580E164
:102AE000D8011D928A95E9F7E0E2AE2EE3E0BE2E12
:102AF000A801B501C6010E946505A895BFEFAB1AF4
:102B0000BB0AE6E8AE16E3E0BE0691F780E1EAE232
:102B1000F1E0D80101900D928A95E1F7A80161E0FA
:102B200070E0C6010E94650568EE73E080E090E009
:102B30000E942D0CE0E0F0E00995E0E0F0E009955E
:102B400006C0BB2021F089EB94E00E94A601B09062
:102B5000DA04BB2009F41EC21092DA044091830407
:102B600050918404EAEEF2E080E090E0DA01A80FF0
:102B7000B91F2C912193019680319105B9F780916D
:102B8000EA028035A1F48091EB02893409F002C297
:102B90008091EC028E3409F0FDC18091ED02873402
:102BA00009F0F8C144E050E06BE472E0DCC183342A
:102BB00009F089C08091EB025091EE024091EF0242
:102BC0003091F0022091F1029091F202893441F5A6
:102BD0006091EC02643421F580E1D8011D928A9560
:102BE000E9F769838FEF888789878A878B878C8746
:102BF0008D878E878F87888B5A834B833C832D8369
:102C00009E83A80166E873E085E295E00E94650571
:102C10000E946D080E94C50AE0E0F0E00995CEC26E
:102C2000C82ED12CDC2CCC248091EC02C80ED11CF7
:102C30008091ED0289835A834B833C832D839E834D
:102C40008091F3028F838091F40288878091F5024E
:102C500089878091F6028A878091F7028B878FEFB0
:102C60008C878D878E878F87888BA801B60185E238
:102C700095E00E94650586E0D7011D928A95E9F7E7
:102C80004AE0B701C6010E94CF1B83E489838AE32F
:102C90008A838091ED028F3F11F482E501C083E5C4
:102CA0008B838AE38C838B8D8D838C8D8E838D8D2E
:102CB0008F838E8D88878F8D898788A18A874AE048
:102CC00050E0B80150C1813409F048C08091EB0256
:102CD000833409F05FC18091EC028B3409F05AC152
:102CE00050E2C52E53E0D52EB12C63E0A62EB4E8F9
:102CF000CB16B3E0DB0659F1A801B601809121059E
:102D0000909122050E94DE059091EE028E8198132B
:102D10001AC09091EF028F81981315C09091F00224
:102D20008885981310C09091F102898598130BC083
:102D3000A982A801B60180912105909122050E94E7
:102D40006505BB24B394E2E0CE0ED11CD0CFBB20EE
:102D500009F434C281E08093190530C2833509F04B
:102D600019C18091EB028A3309F0B1C08091EC0265
:102D7000833509F041C08091EE028E3449F41092FF
:102D8000AF040E94390B47E050E060E572E022C0DA
:102D9000853529F51092AF0481E08093B0048AEF65
:102DA0009FEFAFEFBFEF8093AB049093AC04A09381
:102DB000AD04B093AE048091990490919A04DC0123
:102DC000ED91FC910190F081E02D099547E050E0F4
:102DD00068E572E080919B0490919C04C6C08C349D
:102DE00009F0ECC181E08093AF040E94390B47E009
:102DF00050E060E672E0EECF813409F04DC084E42B
:102E000089838091EE028A838091EF028B83809187
:102E1000F0028C838091F1028D83A80167E873E052
:102E200080919304909194040E94650564E670E09B
:102E300080E090E00E942D0C8091EE0290E0A0E0F6
:102E4000B0E0BA2FA92F982F88272091EF02820F88
:102E5000911DA11DB11DBA2FA92F982F8827209150
:102E6000F002820F911DA11DB11DBA2FA92F982F1D
:102E700088272091F102820F911DA11DB11D809321
:102E8000A3049093A404A093A504B093A6044AE0DD
:102E900050E068E672E09ECF843449F485E295E024
:102EA0000E949A0548E050E063E772E05CC0873416
:102EB00009F070C04AEE52E068E873E085E295E000
:102EC0000E9465054AE050E06CE772E04CC0833434
:102ED00009F060C08091EC02823021F498E0C92EA4
:102EE000D12C02C0C12CD12CA8016AE873E08091DA
:102EF000C5049091C6040E94DE058981843479F16D
:102F0000A80169E873E08091C5049091C6040E940D
:102F1000DE05EDEEF2E0D801AC0DBD1D22E0E53F8F
:102F2000F20719F081918D93F9CFA80169E873E058
:102F30008091C5049091C6040E94650538E0C316CF
:102F4000D10459F484E48983A8016AE873E080918C
:102F5000C5049091C6040E946505B11009C049E0FE
:102F600050E067E872E089E195E00E94E50926C13A
:102F70008091EC02813041F449E050E061E972E077
:102F800089E195E00E94E5098091EC02823009F028
:102F900015C1E5CF0E94670C80901B0590901C0521
:102FA000A0901D05B0901E05DC01CB018819990980
:102FB000AA09BB09209119058938E3E19E07A105FB
:102FC000B1051CF4222309F4F9C0211116C0809127
:102FD0001A05882309F4F2C0109219050E94670CA3
:102FE00060931B0570931C0580931D0590931E052F
:102FF00080E2A82E83E0B82E0DC021E020931A05B0
:103000008C3B9240A105B1050CF4D8C0E0CF32E072
:10301000A30EB11C24E8A21623E0B20609F4CCC02A
:103020006E013BE4C30ED11C4E018BE3880E911C54
:10303000C6014096D401F6016F969FAE8EAE6F9793
:1030400011921D928E179F07D9F7A601B5018091A5
:103050002105909122050E94DE05D6018C918230D7
:10306000B1F6B5016F5F7F4FA4018091210590916A
:1030700022050E94DE052801C6010996F801D60145
:103080002D916D0121938A179B07C9F7FE013A968E
:10309000D4018D914D018193A1962EAD3FADA197A5
:1030A0002E173F07A9F78CE48A8F8DB79EB7A3969A
:1030B0009FAF8EAFA397ADB7BEB790970FB6F894FA
:1030C000BEBF0FBEADBFEDB7FEB731966F014F016A
:1030D0005F01212C312C9F012E0D3F1DA6963FAF85
:1030E0002EAFA69782E090E082159305D1F1D20130
:1030F000F701C501A6962EAD3FADA697821B930B97
:103100009C012E0F3F1F2A31310518F03FEF30830D
:1031100002C02C91208331961196E615F70581F7B0
:10312000A701B30186E295E00E94270F81E090E0BD
:103130006D969FAF8EAF6D97F301D50181918D9301
:103140006F962EAD3FAD6F972E173F07B9F73FEF44
:10315000231A330A80E1A80EB11C90E1490E511CDC
:10316000C1CF8BE992E00E94E3094AE060E270E09F
:1031700080E090E00E94F80A84EA92E00E94E3096D
:10318000D60190966D01C814D90441F0F401619103
:103190004F0189ED93E00E94210DF5CF86E292E088
:1031A0000E94E309A3962EAD3FADA3970FB6F89406
:1031B0003EBF0FBE2DBF02C010921A050E94900D97
:1031C000BACB49E050E066EA72E0A2CB0E94390B2C
:1031D000BECC0E94670C6093E1037093E20380937E
:1031E000E3039093E40389ED93E00E94C70C97FFFB
:1031F000EEC00E94670C8090E1039090E203A090E3
:10320000E303B090E403DC01CB0188199909AA0912
:10321000BB098090DD039090DE03A090DF03B090A7
:10322000E00388159905AA05BB05E8F280E090E067
:103230009C012F5F3F4FF901ED53FB4F43ADFC0164
:10324000ED53FB4F43AFC9012A31310589F7A496ED
:103250003FADA4973093180580911605873449F443
:1032600080911705893429F480911805843409F474
:10327000B2C08091FE048B3209F066CB8091FF04CE
:10328000823509F061CB80910005833409F05CCB75
:1032900080910105863509F057CBFE017B96BF0171
:1032A0008AE090E0AF019C012D533B4FD901DB96A2
:1032B0002C91DB012D93BD0101968A31910599F77F
:1032C00020911805812C912C54018191880E911C1C
:1032D000A11CB11CE615F705C1F7BB27AB2D9A2D34
:1032E000892D982F8827881A990A30E0821693062C
:1032F00019F01092DA0468C0B80186E295E00E94E5
:10330000970E8C84912CA12CB12CBA2CA92C982C22
:1033100088248D85880E911CA11CB11CBA2CA92C67
:10332000982C88248E85880E911CA11CB11CBA2C67
:10333000A92C982C88248F85880E911CA11CB11C67
:103340008091E6029091E702A091E802B091E90233
:1033500088159905AA05BB05B0F48091C304909126
:10336000C404FC014081518162817381452B462B4D
:10337000472B09F472C00E94FC07681579058A057D
:103380009B0508F06AC08091E6029091E702A09147
:10339000E802B091E902E091C304F091C404808393
:1033A0009183A283B383D80180E090E0E09183040D
:1033B000F0918404E80FF91F2D912083019680314C
:1033C0009105A1F7D092DA040E945D09BDCAA496C6
:1033D0008FAFA4972BCFA80168E873E08091C50454
:1033E0009091C6040E94DE0560EB72E0C3010E946A
:1033F00017102AE0A70160E07AEC8AE99BE30E94BB
:10340000DA1BF70101900020E9F73197AF014E195F
:103410005F09B701C3010E94AD0F42E050E066E2D0
:1034200072E0C3010E94AD0F4FA558A96BA57CA502
:1034300089ED93E00E948E0C86E292E00E94D10911
:1034400068EC70E080E090E00E942D0C8BA59CA5BC
:103450000E94731D0E945D090CCF8092E60290923B
:10346000E702A092E802B092E9028DCF86E295E0F1
:103470000E9451058091DB059091DC05009711F0C9
:103480000E94731DF894A89584B7877F84BF8091AC
:103490006000886180936000109260007894E5EE8F
:1034A000F5E01082319686E0E532F807D1F780E446
:1034B00090E020E830E0F901E81BF90BEB51FA4FFE
:1034C00010820197C1F70895AF92BF92CF92DF9219
:1034D000FF920F931F93CF93DF93E9EDF3E01382F5
:1034E000128288EE93E0A0E0B0E084839583A68307
:1034F000B78322E831E03183208325EC30E0358743
:10350000248724EC30E03787268720EC30E0318BAD
:10351000208B21EC30E0338B228B22EC30E0358B9A
:10352000248B26EC30E0378B268B118E128E138E77
:10353000148EE6E7F4E01382128284839583A683D7
:10354000B78384E991E091838083E5E6F6E0108219
:103550008181807880628F778183109267061092D4
:1035600068061092690610926A0680E89EEEA6E34D
:10357000B0E080936B0690936C06A0936D06B093B9
:103580006E061092770610927806E6E2F5E08EEC71
:1035900091E0918380838AE082838BE295E094833B
:1035A00083831092E1051092E2051092E3051092D8
:1035B000E405C9E1D5E0188219821B861A8685E2E6
:1035C000A82E85E0B82EB986A88691EEC92E95E082
:1035D000D92EDF82CE8203EC14E0FF24F394F801AD
:1035E000F48280E1EAE5F1E0A8ECB4E001900D920C
:1035F0008A95E1F7F801118E108E178AB382A282A4
:10360000D182C08280E190E00E94DB1C9093840410
:10361000809383040E945D0989EB94E02EEE31E0F3
:10362000FC013183208326E030E03783268324E0C9
:1036300030E03187208710928204D382C282A1EBCE
:10364000B4E022EE31E011963C932E932EE030E070
:1036500013963C932E9312972FE030E015963C93EF
:103660002E93149725E030E017963C932E931697EF
:10367000E3E9F4E01486158616861786148E158EF7
:10368000B182A0829383828315830483D187C0870C
:10369000D386C286B783A6838AEF9FEFAFEFBFEFD3
:1036A000848B958BA68BB78B808F918FA28FB38FD6
:1036B000A7E8B4E015961C921E9214971796DC9218
:1036C000CE9216971996DC93CE9318971B96FC937F
:1036D000EE931A97FC921196FC9211971296FC9217
:1036E00012971396FC92139715961C921E9214979C
:1036F00088E090E00E94DB1C909386048093850410
:10370000DF91CF911F910F91FF90DF90CF90BF90ED
:10371000AF900895FC0188279927E89421912032E1
:10372000E9F3293010F02E30C8F32B3241F02D325E
:1037300039F4689404C00E94FE1B820F911D2191F0
:1037400020532A30C0F31EF4909581959F4F089521
:103750001F93FC0199278827BC01E894119110322E
:10376000E9F3193010F01E30C8F31B3251F01D324E
:1037700049F4689406C00E94E91B610F711D811D08
:10378000911D119110531A30B0F33EF4909580952D
:10379000709561957F4F8F4F9F4F1F910895BB2765
:1037A0004A3031F4992322F4BDE2909581959F4FE0
:1037B0000C94291CBB272A3051F4992342F4BDE212
:1037C00090958095709561957F4F8F4F9F4F0C948A
:1037D000071C592F482F372F262F660F771F881F5A
:1037E000991F660F771F881F991F620F731F841F11
:1037F000951F660F771F881F991F08957AE0979F7E
:10380000902D879F802D910D11240895BB27FA01DB
:10381000A62F6217710581059105330B30FB66F009
:10382000AA27660F771F881F991FAA1FA21710F0DB
:10383000A21B63953850A9F7A05DAA3308F0A95DD3
:10384000A19336F7B111B1931082CA010C94421CB6
:10385000BB27FB015527AA27880F991FAA1FA4176A
:1038600010F0A41B83955051B9F7A05DAA3308F05E
:10387000A95DA193009779F7B111B1931192CB0192
:103880000C94421CDC01FC01672F71917723E1F756
:10389000329704C07C916D9370836291AE17BF071D
:1038A000C8F308950E94941CA59F900DB49F900D9D
:1038B000A49F800D911D112408952F923F924F9245
:1038C0005F926F927F928F929F92AF92BF92CF92B0
:1038D000DF92EF92FF920F931F93CF93DF93CDB7B9
:1038E000DEB7CA1BDB0B0FB6F894DEBF0FBECDBF31
:1038F00009942A88398848885F846E847D848C8402
:103900009B84AA84B984C884DF80EE80FD800C810A
:103910001B81AA81B981CE0FD11D0FB6F894DEBFED
:103920000FBECDBFED010895A29FB001B39FC001AE
:10393000A39F700D811D1124911DB29F700D811DDB
:103940001124911D0895DB018F939F930E94521CB7
:10395000BF91AF91A29F800D911DA39F900DB29F2B
:10396000900D11240895A1E21A2EAA1BBB1BFD0184
:103970000DC0AA1FBB1FEE1FFF1FA217B307E4074E
:10398000F50720F0A21BB30BE40BF50B661F771FA6
:10399000881F991F1A9469F7609570958095909586
:1039A0009B01AC01BD01CF010895EE0FFF1F0590F3
:1039B000F491E02D09940F931F93CF93DF938230FE
:1039C000910510F482E090E0E091E406F091E506C4
:1039D00020E030E0A0E0B0E0309719F14081518163
:1039E0000281138148175907C8F08417950769F4B5
:1039F000109731F012960C93129713961C9327C0D0
:103A00000093E4061093E50622C02115310519F054
:103A10004217530718F49A01BD01EF01DF01F801C5
:103A2000DBCF21153105F9F0281B390B2430310586
:103A300080F48A819B816115710521F0FB019383DC
:103A4000828304C09093E5068093E406FE013296DB
:103A500044C0FE01E20FF31F81939193225031097C
:103A6000398328833AC02091E2063091E306232B64
:103A700041F420911601309117013093E306209311
:103A8000E20620911401309115012115310541F410
:103A90002DB73EB74091180150911901241B350BE9
:103AA000E091E206F091E306E217F307A0F42E1B83
:103AB0003F0B2817390778F0AC014E5F5F4F241792
:103AC000350748F04E0F5F1F5093E3064093E20620
:103AD0008193919302C0E0E0F0E0CF01DF91CF91BC
:103AE0001F910F910895CF93DF93009709F481C040
:103AF000FC01329713821282A091E406B091E50690
:103B0000109781F420813181820F931F2091E2066A
:103B10003091E3062817390751F5F093E306E09357
:103B2000E20667C0ED0120E030E0CE17DF0740F489
:103B30004A815B819E0141155105F1F0EA01F5CF03
:103B4000D383C28340815181840F951FC817D90741
:103B500059F488819981840F951F029691838083FF
:103B60008A819B81938382832115310529F4F09307
:103B7000E506E093E4063DC0E901FB83EA83499151
:103B80005991C40FD51FEC17FD0761F48081918115
:103B9000840F951F0296E90199838883828193811E
:103BA0009B838A83E0E0F0E012968D919C911397BD
:103BB000009719F0FD01DC01F7CF8D919C911197D1
:103BC0009D012E5F3F4F820F931F2091E20630919F
:103BD000E3062817390769F4309729F41092E506AF
:103BE0001092E40602C013821282B093E306A093FF
:103BF000E206DF91CF910895A0E0B0E0E2E0FEE1BF
:103C00000C94611CEC01009721F4CB010E94DB1C99
:103C1000B4C0FC01E60FF71F9C0122503109E217E6
:103C2000F30708F4A8C0D9010D911C91119706174C
:103C30001707B0F00530110508F49BC0C8010497C0
:103C40008617970708F495C002501109061B170B39
:103C5000019311936D937C93CF010E94731D89C0D2
:103C60005B01A01AB10A4C01800E911EA091E406DE
:103C7000B091E506612C712CE12CF12C109709F420
:103C800046C08D919C911197A815B905B1F56C01AD
:103C900042E0C40ED11CCA14DB0478F14C018A182E
:103CA0009B08640142E0C40ED11C1296BC9012978E
:103CB0001396AC91B5E0CB16D10440F0B282A38349
:103CC00091828082D9016D937C9309C00E5F1F4F52
:103CD000800F911FF90191838083EB2DFA2FE1145E
:103CE000F10431F0D7011396FC93EE93129741C083
:103CF000F093E506E093E4063CC06816790608F404
:103D00003C017D0112960D90BC91A02DB7CF809102
:103D1000E2069091E30688169906E1F466167706A6
:103D2000C8F48091140190911501009741F48DB76A
:103D30009EB74091180150911901841B950BE8170B
:103D4000F907C8F4F093E306E093E206F901718302
:103D500060830FC0CB010E94DB1C7C01009759F0EF
:103D6000A801BE010E94C71ECE010E94731DC7019B
:103D700004C0CE0102C080E090E0CDB7DEB7EEE037
:103D80000C947D1C81E090E0F8940C94E71EFB01FC
:103D9000DC0102C001900D9241505040D8F70895C7
:103DA000DC0101C06D9341505040E0F70895FB01E4
:103DB000DC018D91019080190110D9F3990B0895C0
:103DC000FB01DC0101900D920020E1F7089511E064
:103DD000C8E6D1E004C0FE010E94D51C2196C93678
:083DE000D107C9F7F894FFCFE9
:103DE80000000000010203010108020403FFFFFFB5
:103DF8008D0C8D0C0000E6068000FFFFFFFFFFFF23
:103E0800FFFFFFFFFFFFFFFFFFFF0102030405069F
:103E180007FFFFFFFFFFFFFFFFFF47657453686F52
:103E28007000FFFFFFFFFFFFFFFFFFFFFFFFFFFF28
:103E3800FFFF001B362D6C775A4154A1B7CD00F116
:103E4800F0A0189ACF2BC1AA0E9FFFFFFFFFFFFF1C
:103E5800FFFFFFFFFFFFFFFFFFFF850320030000B9
:103E68000000210D8E0CB80C6E0DE90CC70CDB0C94
:103E780000000000260EF90D560E2612F10DDD0D7C
:103E8800CE0D00000000000000006E0E6E0E6E0EDB
:103E98006E0E6E0E6E0E0000000000000000930112
:103EA8006E0E6E0E270F970E590E0000000051057A
:103EB8005B0593019301AF01270F970E590E000080
:103EC8000000850292029F026C0200000000BC0202
:103ED80096019901A6011F0741542B4E4554574F8F
:103EE800524B49443D350D0A0041542B4D4F444532
:103EF8003D300D0A0041542B42414E443D3836387E
:103F08003530303030300D0A0041542B5041524189
:103F18004D455445523D31302C372C312C370D0A44
:103F280000537461727465643A4E00504F4E4700F6
:103F380053544154453A4E0053544154453A550060
:103F480053544154453A4C005345543A4155544909
:103F58004D450041434F444544454C00474944437F
:103F680048414E47454400454E433A5345543A323A
:103F780000454E433A5345543A310041542B53457A
:103F88004E443D312C00537461727465643A570095
:103F980041542B53454E443D312C31342C47494430
:103FA8003A0047657453686F700041542B4144448C
:103FB800524553533D00443A4C4F434B454400004F
:00000001FF
